{
  "_format": "hh-sol-artifact-1",
  "contractName": "MedicalContract",
  "sourceName": "contracts/MedicalContract.sol",
  "abi": [
    {
      "anonymous": false,
      "inputs": [
        {
          "indexed": true,
          "internalType": "uint256",
          "name": "contractId",
          "type": "uint256"
        }
      ],
      "name": "ContractApproved",
      "type": "event"
    },
    {
      "anonymous": false,
      "inputs": [
        {
          "indexed": true,
          "internalType": "uint256",
          "name": "contractId",
          "type": "uint256"
        },
        {
          "indexed": false,
          "internalType": "uint256",
          "name": "patientId",
          "type": "uint256"
        },
        {
          "indexed": false,
          "internalType": "uint256",
          "name": "doctorId",
          "type": "uint256"
        }
      ],
      "name": "ContractCreated",
      "type": "event"
    },
    {
      "anonymous": false,
      "inputs": [
        {
          "indexed": true,
          "internalType": "uint256",
          "name": "contractId",
          "type": "uint256"
        }
      ],
      "name": "ContractDeleted",
      "type": "event"
    },
    {
      "anonymous": false,
      "inputs": [
        {
          "indexed": true,
          "internalType": "uint256",
          "name": "contractId",
          "type": "uint256"
        }
      ],
      "name": "ContractRestored",
      "type": "event"
    },
    {
      "anonymous": false,
      "inputs": [
        {
          "indexed": true,
          "internalType": "uint256",
          "name": "contractId",
          "type": "uint256"
        },
        {
          "indexed": false,
          "internalType": "string",
          "name": "newTreatmentType",
          "type": "string"
        },
        {
          "indexed": false,
          "internalType": "string",
          "name": "newDescription",
          "type": "string"
        }
      ],
      "name": "ContractUpdated",
      "type": "event"
    },
    {
      "inputs": [
        {
          "internalType": "uint256",
          "name": "_contractId",
          "type": "uint256"
        },
        {
          "internalType": "uint256",
          "name": "_approverId",
          "type": "uint256"
        }
      ],
      "name": "approveContract",
      "outputs": [],
      "stateMutability": "nonpayable",
      "type": "function"
    },
    {
      "inputs": [
        {
          "internalType": "uint256",
          "name": "",
          "type": "uint256"
        }
      ],
      "name": "contracts",
      "outputs": [
        {
          "internalType": "uint256",
          "name": "contractId",
          "type": "uint256"
        },
        {
          "internalType": "uint256",
          "name": "patientId",
          "type": "uint256"
        },
        {
          "internalType": "uint256",
          "name": "doctorId",
          "type": "uint256"
        },
        {
          "internalType": "string",
          "name": "treatmentType",
          "type": "string"
        },
        {
          "internalType": "string",
          "name": "description",
          "type": "string"
        },
        {
          "internalType": "uint256",
          "name": "createdAt",
          "type": "uint256"
        },
        {
          "internalType": "uint256",
          "name": "lastUpdated",
          "type": "uint256"
        },
        {
          "internalType": "bool",
          "name": "isApproved",
          "type": "bool"
        },
        {
          "internalType": "bool",
          "name": "isDeleted",
          "type": "bool"
        }
      ],
      "stateMutability": "view",
      "type": "function"
    },
    {
      "inputs": [
        {
          "internalType": "uint256",
          "name": "_patientId",
          "type": "uint256"
        },
        {
          "internalType": "uint256",
          "name": "_doctorId",
          "type": "uint256"
        },
        {
          "internalType": "string",
          "name": "_treatmentType",
          "type": "string"
        },
        {
          "internalType": "string",
          "name": "_description",
          "type": "string"
        }
      ],
      "name": "createContract",
      "outputs": [],
      "stateMutability": "nonpayable",
      "type": "function"
    },
    {
      "inputs": [],
      "name": "getAllContracts",
      "outputs": [
        {
          "components": [
            {
              "internalType": "uint256",
              "name": "contractId",
              "type": "uint256"
            },
            {
              "internalType": "uint256",
              "name": "patientId",
              "type": "uint256"
            },
            {
              "internalType": "uint256",
              "name": "doctorId",
              "type": "uint256"
            },
            {
              "internalType": "string",
              "name": "treatmentType",
              "type": "string"
            },
            {
              "internalType": "string",
              "name": "description",
              "type": "string"
            },
            {
              "internalType": "uint256",
              "name": "createdAt",
              "type": "uint256"
            },
            {
              "internalType": "uint256",
              "name": "lastUpdated",
              "type": "uint256"
            },
            {
              "internalType": "bool",
              "name": "isApproved",
              "type": "bool"
            },
            {
              "internalType": "bool",
              "name": "isDeleted",
              "type": "bool"
            }
          ],
          "internalType": "struct MedicalContract.Contract[]",
          "name": "",
          "type": "tuple[]"
        }
      ],
      "stateMutability": "view",
      "type": "function"
    },
    {
      "inputs": [
        {
          "internalType": "uint256",
          "name": "_doctorId",
          "type": "uint256"
        }
      ],
      "name": "getContractsByDoctor",
      "outputs": [
        {
          "components": [
            {
              "internalType": "uint256",
              "name": "contractId",
              "type": "uint256"
            },
            {
              "internalType": "uint256",
              "name": "patientId",
              "type": "uint256"
            },
            {
              "internalType": "uint256",
              "name": "doctorId",
              "type": "uint256"
            },
            {
              "internalType": "string",
              "name": "treatmentType",
              "type": "string"
            },
            {
              "internalType": "string",
              "name": "description",
              "type": "string"
            },
            {
              "internalType": "uint256",
              "name": "createdAt",
              "type": "uint256"
            },
            {
              "internalType": "uint256",
              "name": "lastUpdated",
              "type": "uint256"
            },
            {
              "internalType": "bool",
              "name": "isApproved",
              "type": "bool"
            },
            {
              "internalType": "bool",
              "name": "isDeleted",
              "type": "bool"
            }
          ],
          "internalType": "struct MedicalContract.Contract[]",
          "name": "",
          "type": "tuple[]"
        }
      ],
      "stateMutability": "view",
      "type": "function"
    },
    {
      "inputs": [
        {
          "internalType": "uint256",
          "name": "_patientId",
          "type": "uint256"
        }
      ],
      "name": "getContractsByPatient",
      "outputs": [
        {
          "components": [
            {
              "internalType": "uint256",
              "name": "contractId",
              "type": "uint256"
            },
            {
              "internalType": "uint256",
              "name": "patientId",
              "type": "uint256"
            },
            {
              "internalType": "uint256",
              "name": "doctorId",
              "type": "uint256"
            },
            {
              "internalType": "string",
              "name": "treatmentType",
              "type": "string"
            },
            {
              "internalType": "string",
              "name": "description",
              "type": "string"
            },
            {
              "internalType": "uint256",
              "name": "createdAt",
              "type": "uint256"
            },
            {
              "internalType": "uint256",
              "name": "lastUpdated",
              "type": "uint256"
            },
            {
              "internalType": "bool",
              "name": "isApproved",
              "type": "bool"
            },
            {
              "internalType": "bool",
              "name": "isDeleted",
              "type": "bool"
            }
          ],
          "internalType": "struct MedicalContract.Contract[]",
          "name": "",
          "type": "tuple[]"
        }
      ],
      "stateMutability": "view",
      "type": "function"
    },
    {
      "inputs": [
        {
          "internalType": "uint256",
          "name": "_contractId",
          "type": "uint256"
        }
      ],
      "name": "markAsDeleted",
      "outputs": [],
      "stateMutability": "nonpayable",
      "type": "function"
    },
    {
      "inputs": [
        {
          "internalType": "uint256",
          "name": "_contractId",
          "type": "uint256"
        }
      ],
      "name": "markAsNotDeleted",
      "outputs": [],
      "stateMutability": "nonpayable",
      "type": "function"
    },
    {
      "inputs": [
        {
          "internalType": "uint256",
          "name": "_contractId",
          "type": "uint256"
        },
        {
          "internalType": "string",
          "name": "_newTreatmentType",
          "type": "string"
        },
        {
          "internalType": "string",
          "name": "_newDescription",
          "type": "string"
        }
      ],
      "name": "updateContract",
      "outputs": [],
      "stateMutability": "nonpayable",
      "type": "function"
    }
  ],
  "bytecode": "0x608060405234801561001057600080fd5b5061202b806100206000396000f3fe608060405234801561001057600080fd5b50600436106100935760003560e01c8063474da79a11610066578063474da79a1461011e5780637069c266146101565780637ffec94714610186578063ad847487146101a2578063b6811d28146101be57610093565b806318d3ce96146100985780632b377eb5146100b657806343f00e5d146100e6578063448fd24314610102575b600080fd5b6100a06101da565b6040516100ad9190611576565b60405180910390f35b6100d060048036038101906100cb91906115d8565b61043c565b6040516100dd9190611576565b60405180910390f35b61010060048036038101906100fb919061173a565b6107b3565b005b61011c600480360381019061011791906115d8565b61093b565b005b610138600480360381019061013391906115d8565b610a46565b60405161014d99989796959493929190611841565b60405180910390f35b610170600480360381019061016b91906115d8565b610bce565b60405161017d9190611576565b60405180910390f35b6101a0600480360381019061019b91906115d8565b610f45565b005b6101bc60048036038101906101b791906118dc565b61104f565b005b6101d860048036038101906101d39190611967565b611154565b005b606060008080549050905060008167ffffffffffffffff8111156102015761020061160f565b5b60405190808252806020026020018201604052801561023a57816020015b6102276112d4565b81526020019060019003908161021f5790505b50905060005b82811015610433576000818154811061025c5761025b6119a7565b5b9060005260206000209060080201604051806101200160405290816000820154815260200160018201548152602001600282015481526020016003820180546102a490611a05565b80601f01602080910402602001604051908101604052809291908181526020018280546102d090611a05565b801561031d5780601f106102f25761010080835404028352916020019161031d565b820191906000526020600020905b81548152906001019060200180831161030057829003601f168201915b5050505050815260200160048201805461033690611a05565b80601f016020809104026020016040519081016040528092919081815260200182805461036290611a05565b80156103af5780601f10610384576101008083540402835291602001916103af565b820191906000526020600020905b81548152906001019060200180831161039257829003601f168201915b5050505050815260200160058201548152602001600682015481526020016007820160009054906101000a900460ff161515151581526020016007820160019054906101000a900460ff161515151581525050828281518110610415576104146119a7565b5b6020026020010181905250808061042b90611a65565b915050610240565b50809250505090565b60606000805b6000805490508110156104da578360008281548110610464576104636119a7565b5b9060005260206000209060080201600101541480156104b3575060008181548110610492576104916119a7565b5b906000526020600020906008020160070160019054906101000a900460ff16155b156104c75781806104c390611a65565b9250505b80806104d290611a65565b915050610442565b5060008167ffffffffffffffff8111156104f7576104f661160f565b5b60405190808252806020026020018201604052801561053057816020015b61051d6112d4565b8152602001906001900390816105155790505b5090506000805b6000805490508110156107a7578560008281548110610559576105586119a7565b5b9060005260206000209060080201600101541480156105a8575060008181548110610587576105866119a7565b5b906000526020600020906008020160070160019054906101000a900460ff16155b1561079457600081815481106105c1576105c06119a7565b5b90600052602060002090600802016040518061012001604052908160008201548152602001600182015481526020016002820154815260200160038201805461060990611a05565b80601f016020809104026020016040519081016040528092919081815260200182805461063590611a05565b80156106825780601f1061065757610100808354040283529160200191610682565b820191906000526020600020905b81548152906001019060200180831161066557829003601f168201915b5050505050815260200160048201805461069b90611a05565b80601f01602080910402602001604051908101604052809291908181526020018280546106c790611a05565b80156107145780601f106106e957610100808354040283529160200191610714565b820191906000526020600020905b8154815290600101906020018083116106f757829003601f168201915b5050505050815260200160058201548152602001600682015481526020016007820160009054906101000a900460ff161515151581526020016007820160019054906101000a900460ff16151515158152505083838151811061077a576107796119a7565b5b6020026020010181905250818061079090611a65565b9250505b808061079f90611a65565b915050610537565b50819350505050919050565b60006107bd61128a565b9050600060405180610120016040528083815260200187815260200186815260200185815260200184815260200142815260200142815260200160001515815260200160001515815250908060018154018082558091505060019003906000526020600020906008020160009091909190915060008201518160000155602082015181600101556040820151816002015560608201518160030190816108639190611c59565b5060808201518160040190816108799190611c59565b5060a0820151816005015560c0820151816006015560e08201518160070160006101000a81548160ff0219169083151502179055506101008201518160070160016101000a81548160ff021916908315150217905550505060016000805490506108e39190611d2b565b6001600083815260200190815260200160002081905550807f2e8eacab67073eed9afe3a6b8db8a4359b504aa5e5adb5cd7961a9add0e1bac8868660405161092c929190611d5f565b60405180910390a25050505050565b600080549050600160008381526020019081526020016000205410610995576040517f08c379a000000000000000000000000000000000000000000000000000000000815260040161098c90611dd4565b60405180910390fd5b6000600160008381526020019081526020016000205490506001600082815481106109c3576109c26119a7565b5b906000526020600020906008020160070160016101000a81548160ff0219169083151502179055504260008281548110610a00576109ff6119a7565b5b906000526020600020906008020160060181905550817fa4541e1c7a5e3dcb952d172dec9797f0223ad3a2aae8e816f3469bc53b5c51f860405160405180910390a25050565b60008181548110610a5657600080fd5b9060005260206000209060080201600091509050806000015490806001015490806002015490806003018054610a8b90611a05565b80601f0160208091040260200160405190810160405280929190818152602001828054610ab790611a05565b8015610b045780601f10610ad957610100808354040283529160200191610b04565b820191906000526020600020905b815481529060010190602001808311610ae757829003601f168201915b505050505090806004018054610b1990611a05565b80601f0160208091040260200160405190810160405280929190818152602001828054610b4590611a05565b8015610b925780601f10610b6757610100808354040283529160200191610b92565b820191906000526020600020905b815481529060010190602001808311610b7557829003601f168201915b5050505050908060050154908060060154908060070160009054906101000a900460ff16908060070160019054906101000a900460ff16905089565b60606000805b600080549050811015610c6c578360008281548110610bf657610bf56119a7565b5b906000526020600020906008020160020154148015610c45575060008181548110610c2457610c236119a7565b5b906000526020600020906008020160070160019054906101000a900460ff16155b15610c59578180610c5590611a65565b9250505b8080610c6490611a65565b915050610bd4565b5060008167ffffffffffffffff811115610c8957610c8861160f565b5b604051908082528060200260200182016040528015610cc257816020015b610caf6112d4565b815260200190600190039081610ca75790505b5090506000805b600080549050811015610f39578560008281548110610ceb57610cea6119a7565b5b906000526020600020906008020160020154148015610d3a575060008181548110610d1957610d186119a7565b5b906000526020600020906008020160070160019054906101000a900460ff16155b15610f265760008181548110610d5357610d526119a7565b5b906000526020600020906008020160405180610120016040529081600082015481526020016001820154815260200160028201548152602001600382018054610d9b90611a05565b80601f0160208091040260200160405190810160405280929190818152602001828054610dc790611a05565b8015610e145780601f10610de957610100808354040283529160200191610e14565b820191906000526020600020905b815481529060010190602001808311610df757829003601f168201915b50505050508152602001600482018054610e2d90611a05565b80601f0160208091040260200160405190810160405280929190818152602001828054610e5990611a05565b8015610ea65780601f10610e7b57610100808354040283529160200191610ea6565b820191906000526020600020905b815481529060010190602001808311610e8957829003601f168201915b5050505050815260200160058201548152602001600682015481526020016007820160009054906101000a900460ff161515151581526020016007820160019054906101000a900460ff161515151581525050838381518110610f0c57610f0b6119a7565b5b60200260200101819052508180610f2290611a65565b9250505b8080610f3190611a65565b915050610cc9565b50819350505050919050565b600080549050600160008381526020019081526020016000205410610f9f576040517f08c379a0000000000000000000000000000000000000000000000000000000008152600401610f9690611dd4565b60405180910390fd5b6000600160008381526020019081526020016000205490506000808281548110610fcc57610fcb6119a7565b5b906000526020600020906008020160070160016101000a81548160ff0219169083151502179055504260008281548110611009576110086119a7565b5b906000526020600020906008020160060181905550817fb72ef73658cb8e08eb1c4ded386c4e1541d29372f09a5f83fde041ab8dded94e60405160405180910390a25050565b6000805490506001600085815260200190815260200160002054106110a9576040517f08c379a00000000000000000000000000000000000000000000000000000000081526004016110a090611dd4565b60405180910390fd5b60006001600085815260200190815260200160002054905060008082815481106110d6576110d56119a7565b5b90600052602060002090600802019050838160030190816110f79190611c59565b50828160040190816111099190611c59565b50428160060181905550847fa3316c6b2b07d2b1e707077fbf7fc6ea306a67d9e0adca2147fad377f9b98f0e8585604051611145929190611df4565b60405180910390a25050505050565b6000805490506001600084815260200190815260200160002054106111ae576040517f08c379a00000000000000000000000000000000000000000000000000000000081526004016111a590611dd4565b60405180910390fd5b60006001600084815260200190815260200160002054905060008082815481106111db576111da6119a7565b5b9060005260206000209060080201905082816001015414611231576040517f08c379a000000000000000000000000000000000000000000000000000000000815260040161122890611e9d565b60405180910390fd5b60018160070160006101000a81548160ff021916908315150217905550428160060181905550837fd197ef70dfa5d30c3e023138d4396103a72967d6a6ab897fdd1eecb9427e7e4c60405160405180910390a250505050565b60006402540be40042336000805490506040516020016112ac93929190611f58565b6040516020818303038152906040528051906020012060001c6112cf9190611fc4565b905090565b604051806101200160405280600081526020016000815260200160008152602001606081526020016060815260200160008152602001600081526020016000151581526020016000151581525090565b600081519050919050565b600082825260208201905092915050565b6000819050602082019050919050565b6000819050919050565b61136381611350565b82525050565b600081519050919050565b600082825260208201905092915050565b60005b838110156113a3578082015181840152602081019050611388565b60008484015250505050565b6000601f19601f8301169050919050565b60006113cb82611369565b6113d58185611374565b93506113e5818560208601611385565b6113ee816113af565b840191505092915050565b60008115159050919050565b61140e816113f9565b82525050565b60006101208301600083015161142d600086018261135a565b506020830151611440602086018261135a565b506040830151611453604086018261135a565b506060830151848203606086015261146b82826113c0565b9150506080830151848203608086015261148582826113c0565b91505060a083015161149a60a086018261135a565b5060c08301516114ad60c086018261135a565b5060e08301516114c060e0860182611405565b506101008301516114d5610100860182611405565b508091505092915050565b60006114ec8383611414565b905092915050565b6000602082019050919050565b600061150c82611324565b611516818561132f565b93508360208202850161152885611340565b8060005b85811015611564578484038952815161154585826114e0565b9450611550836114f4565b925060208a0199505060018101905061152c565b50829750879550505050505092915050565b600060208201905081810360008301526115908184611501565b905092915050565b6000604051905090565b600080fd5b600080fd5b6115b581611350565b81146115c057600080fd5b50565b6000813590506115d2816115ac565b92915050565b6000602082840312156115ee576115ed6115a2565b5b60006115fc848285016115c3565b91505092915050565b600080fd5b600080fd5b7f4e487b7100000000000000000000000000000000000000000000000000000000600052604160045260246000fd5b611647826113af565b810181811067ffffffffffffffff821117156116665761166561160f565b5b80604052505050565b6000611679611598565b9050611685828261163e565b919050565b600067ffffffffffffffff8211156116a5576116a461160f565b5b6116ae826113af565b9050602081019050919050565b82818337600083830152505050565b60006116dd6116d88461168a565b61166f565b9050828152602081018484840111156116f9576116f861160a565b5b6117048482856116bb565b509392505050565b600082601f83011261172157611720611605565b5b81356117318482602086016116ca565b91505092915050565b60008060008060808587031215611754576117536115a2565b5b6000611762878288016115c3565b9450506020611773878288016115c3565b935050604085013567ffffffffffffffff811115611794576117936115a7565b5b6117a08782880161170c565b925050606085013567ffffffffffffffff8111156117c1576117c06115a7565b5b6117cd8782880161170c565b91505092959194509250565b6117e281611350565b82525050565b600082825260208201905092915050565b600061180482611369565b61180e81856117e8565b935061181e818560208601611385565b611827816113af565b840191505092915050565b61183b816113f9565b82525050565b600061012082019050611857600083018c6117d9565b611864602083018b6117d9565b611871604083018a6117d9565b818103606083015261188381896117f9565b9050818103608083015261189781886117f9565b90506118a660a08301876117d9565b6118b360c08301866117d9565b6118c060e0830185611832565b6118ce610100830184611832565b9a9950505050505050505050565b6000806000606084860312156118f5576118f46115a2565b5b6000611903868287016115c3565b935050602084013567ffffffffffffffff811115611924576119236115a7565b5b6119308682870161170c565b925050604084013567ffffffffffffffff811115611951576119506115a7565b5b61195d8682870161170c565b9150509250925092565b6000806040838503121561197e5761197d6115a2565b5b600061198c858286016115c3565b925050602061199d858286016115c3565b9150509250929050565b7f4e487b7100000000000000000000000000000000000000000000000000000000600052603260045260246000fd5b7f4e487b7100000000000000000000000000000000000000000000000000000000600052602260045260246000fd5b60006002820490506001821680611a1d57607f821691505b602082108103611a3057611a2f6119d6565b5b50919050565b7f4e487b7100000000000000000000000000000000000000000000000000000000600052601160045260246000fd5b6000611a7082611350565b91507fffffffffffffffffffffffffffffffffffffffffffffffffffffffffffffffff8203611aa257611aa1611a36565b5b600182019050919050565b60008190508160005260206000209050919050565b60006020601f8301049050919050565b600082821b905092915050565b600060088302611b0f7fffffffffffffffffffffffffffffffffffffffffffffffffffffffffffffffff82611ad2565b611b198683611ad2565b95508019841693508086168417925050509392505050565b6000819050919050565b6000611b56611b51611b4c84611350565b611b31565b611350565b9050919050565b6000819050919050565b611b7083611b3b565b611b84611b7c82611b5d565b848454611adf565b825550505050565b600090565b611b99611b8c565b611ba4818484611b67565b505050565b5b81811015611bc857611bbd600082611b91565b600181019050611baa565b5050565b601f821115611c0d57611bde81611aad565b611be784611ac2565b81016020851015611bf6578190505b611c0a611c0285611ac2565b830182611ba9565b50505b505050565b600082821c905092915050565b6000611c3060001984600802611c12565b1980831691505092915050565b6000611c498383611c1f565b9150826002028217905092915050565b611c6282611369565b67ffffffffffffffff811115611c7b57611c7a61160f565b5b611c858254611a05565b611c90828285611bcc565b600060209050601f831160018114611cc35760008415611cb1578287015190505b611cbb8582611c3d565b865550611d23565b601f198416611cd186611aad565b60005b82811015611cf957848901518255600182019150602085019450602081019050611cd4565b86831015611d165784890151611d12601f891682611c1f565b8355505b6001600288020188555050505b505050505050565b6000611d3682611350565b9150611d4183611350565b9250828203905081811115611d5957611d58611a36565b5b92915050565b6000604082019050611d7460008301856117d9565b611d8160208301846117d9565b9392505050565b7f496e76616c696420636f6e747261637420494400000000000000000000000000600082015250565b6000611dbe6013836117e8565b9150611dc982611d88565b602082019050919050565b60006020820190508181036000830152611ded81611db1565b9050919050565b60006040820190508181036000830152611e0e81856117f9565b90508181036020830152611e2281846117f9565b90509392505050565b7f4f6e6c79207468652061737369676e65642070617469656e742063616e20617060008201527f70726f7665207468697320636f6e747261637400000000000000000000000000602082015250565b6000611e876033836117e8565b9150611e9282611e2b565b604082019050919050565b60006020820190508181036000830152611eb681611e7a565b9050919050565b6000819050919050565b611ed8611ed382611350565b611ebd565b82525050565b600073ffffffffffffffffffffffffffffffffffffffff82169050919050565b6000611f0982611ede565b9050919050565b60008160601b9050919050565b6000611f2882611f10565b9050919050565b6000611f3a82611f1d565b9050919050565b611f52611f4d82611efe565b611f2f565b82525050565b6000611f648286611ec7565b602082019150611f748285611f41565b601482019150611f848284611ec7565b602082019150819050949350505050565b7f4e487b7100000000000000000000000000000000000000000000000000000000600052601260045260246000fd5b6000611fcf82611350565b9150611fda83611350565b925082611fea57611fe9611f95565b5b82820690509291505056fea26469706673582212209ccf7ff405ab8efb48f66b5e4bb66db4d3470dc99ea5167c245e7eb06473d18664736f6c63430008140033",
  "linkReferences": {},
  "deployedLinkReferences": {}
}